:020000040000FA
:0600000000EF1DF01200EC
:020006001200E6
:0600080007EF10F01200EA
:02000E00A6B298
:04001000FED7120005
:020014001200D8
:020016001200D6
:0600180040EF13F012009E
:02001E000600DA
:100020002B3B0000E302000002000000253B000023
:10003000F400000006000000653A00000005000022
:10004000C0000000613A0000FA0000000400000057
:100050005F3A0000FE00000002000000413A00008C
:08006000DE0300001E00000099
:0800680000000301C16B03015C
:10007000DE510301C15D04E200000301C12BF7D78B
:1000800012000F0EE66E0BEC1CF041E91200050E9B
:10009000E66E0BEC1CF041E91200D9CFE6FFE1CF90
:1000A000D9FF85E90301C26BC36BC46BC56B030148
:1000B000C251005CC3510158C4510258C551035884
:1000C00009E3000004000301C22B000EC323C42374
:1000D000C523EDD741E9E7CFD9FF1200D9CFE6FF1D
:1000E000E1CFD9FF85E9030EE66E7AEC14F041E921
:1000F00062C5C6F363C5C7F364C5C8F365C5C9F374
:10010000C6EC14F0D9CFE9FFDACFEAFF0301C651FC
:10011000EE240301CE6F0301C751EE200301CF6F20
:100120000301C851EE200301D06F0301C951EE2035
:100130000301D16F030EE66E7AEC14F041E962C55B
:10014000CAF363C5CBF364C5CCF365C5CDF3C6EC88
:1001500014F00400CA0EE96E030EEA6E0301CE51DC
:10016000EE5CCF51EE58D051EE58D151EE58E2E34B
:1001700041E9E7CFD9FF120001EC07F083E941E83C
:100180000150050801E2016A005003E033EC07F07A
:10019000EF6A01EBE3F30101B20EF46F320EF56F7B
:1001A000000EF66F41EC07F0E5CFF9F1E5CFF8F17D
:1001B000E7CFF7F10101F451F725F16FF551F8217F
:1001C000F26FF651F921F36F33EC07F0EFCFFAF14C
:1001D000FB6BFC6BF151FA25F36EF251FB21F46ECF
:1001E000F351FC21F86EF4CFF7FFF3CFF6FF0800D0
:1001F000F550036E33EC07F0EF2AEFCFF1F1F26B1D
:10020000F36BF1C1E6FFF2C1E6FFF3C1E6FFB20E08
:10021000FA6F320EFB6F000EFC6F41EC07F0E5CF7A
:10022000FFF1E5CFFEF1E7CFFDF10101FA51FD2528
:10023000F76FFB51FE21F86FFC51FF21F96FF7C1F9
:10024000E6FFF8C1E6FFE66E09EC18F043E9E55277
:10025000E7CFF3F1E552E7CFF2F1E552E7CFF1F165
:10026000FCC3F4F1FDC3F5F1FEC3F6F10101F45155
:10027000F15DF551F259F651F35903E333EC07F010
:10028000EF6A035042E9E7CFD9FF120001EC07F013
:1002900080EC07F002E28AEC07F000EBECF301EBF4
:1002A000EDF302EBEEF303EBEFF33AEC07F04DEC7A
:1002B00007F0E5CFE7F3E5CFE6F3E5CFE5F3E7CFEA
:1002C000E4F33AEC07F093EC07F0F7EC07F0CFEC2F
:1002D00006F070EC07F04DEC07F0E5CFEBF3E5CF5F
:1002E000EAF3E5CFE9F3E7CFE8F370EC07F09CEC35
:1002F00007F0F7EC07F0CFEC06F022EC08F0E66E22
:100300009CEC07F093EC07F0180EE66E2F0EE66EED
:10031000000EC6EC07F051E954EF07F001EC07F0CE
:1003200080EC07F002E28AEC07F000EBF8F301EB57
:10033000F9F302EBFAF303EBFBF33AEC07F05CECB6
:1003400007F0E5CFF3F3E5CFF2F3E5CFF1F3E7CF35
:10035000F0F33AEC07F0A5EC07F0F7EC07F0E8EC67
:1003600006F070EC07F05CEC07F0E5CFF7F3E5CFB3
:10037000F6F3E5CFF5F3E7CFF4F370EC07F0AEEC6E
:1003800007F0F7EC07F0E8EC06F0AEEC07F0A5ECB0
:1003900007F00C0EE66E2F0EE66E000EC6EC07F0B0
:1003A0004DE954EF07F001EC07F083E901340EE367
:1003B00000EBF1F101EBF2F10101F16DF21F000E22
:1003C000F223F1C1F3FFF2C1F4FF04D000EBF3FF1D
:1003D00001EBF4FFF3EF07F001EC07F085E90334DC
:1003E00017E3E668E668E668E66800EBE6FF01EB1F
:1003F000E6FF02EBE6FF03EBE6FFF7EC07F0F1C1E7
:10040000FCF3F2C1FDF3F3C1FEF3F4C1FFF308D036
:1004100000EBFCF301EBFDF302EBFEF303EBFFF368
:10042000F3EF07F0FBEC07F036EC08F079EC06F0A0
:10043000B7EC07F0040EE66E2F0EE66E000E06EC2B
:1004400007F049E919EF07F0FBEC07F02FEC08F093
:10045000B7EC07F0FC0EE66E2E0EE66E000E06EC14
:1004600007F049E919EF07F01BEC08F002E32D0E45
:10047000156FC8EC06F088EC0DF09EEC06F02FEC42
:1004800008F0D8EC07F00DEC07F0D8900101F4511A
:10049000000A08E6DC0EF15D050EF259000EF35974
:1004A000000EF45919E2D8EC07F00DEC07F02AEC35
:1004B00007F015C5F5F10101F66BF5BFF669F5C159
:1004C000E6FFF6C1E6FFF60EE66E2E0EE66E000EB5
:1004D00006EC07F04BE934D0E66AE66A7A0EE66E7F
:1004E000440EC5EC06F09EEC06F036EC08F029EC64
:1004F00008F0ACC5E6FFE66E0DEC07F02AEC07F05D
:10050000D8EC07F069DF44E9FCC3F5F1FDC3F6F16F
:10051000FEC3F7F1FFC3F8F12AEC07F015C5F9F1B6
:100520000101FA6BF9BFFA69F9C1E6FFFAC1E6FF0A
:10053000E90EE66E2E0EE66E000E06EC07F04FE9B1
:1005400019EF07F01BEC08F002E32D0E156FE66AB9
:10055000E66A200EE66E410E02EC08F088EC0DF023
:100560004EEC0EF0E552E5CFA3F5E5CFA2F5E5CFD1
:10057000A1F5E7CFA0F5BDEC07F0E5EC07F0200E04
:10058000E66E410EE66EBDEC07F03CEC08F00A0E9C
:1005900029EC08F0CDEC07F046EC08F0CDEC07F0C4
:1005A00015C5F1F10101F26BF1BFF269F1C1E6FF8E
:1005B000F2C1E6FFDF0EE66E2E0EE66E000E06ECD2
:1005C00007F04BE919EF07F0120001EC07F089E999
:1005D00003340EE202500808000E035409E204EB53
:1005E000FCF305EBFDF306EBFEF307EBFFF35DD049
:1005F0000050011009E005018F0E166FC20E176F33
:10060000750E186F3D0E06D00501166B176B800E28
:10061000186F3E0E196FDEEC07F016C5E6FF17C522
:10062000E6FF18C5E6FF19C5E6FF42EC08F0DEEC70
:1006300007F004EBE6FF05EBE6FF06EBE6FF07EB52
:10064000E6FF5CEC0FF056EC0CF05CEC0FF042ECCB
:1006500008F058EC0CF04EEC0EF0E552E5CF1DF52D
:10066000E5CF1CF5E5CF1BF5E7CF1AF57FDB1AC503
:10067000EEFF1BC5EEFF1CC5EEFF1DC5EEFF001C07
:100680000CE1011C0AE105011A6B1B6B1C6B1D6B55
:100690006DDBEE6AEE6AEE6AEE6A1AC5FCF31BC504
:1006A000FDF31CC5FEF31DC5FFF3F3EF07F00301D7
:1006B000C80EDE6F500EE66EC30E68EC07F0BAECA3
:1006C0001CF00009FCE1100EE66E270E68EC07F046
:1006D000BAEC1CF00009FCE10C0EE66EF5EC18F02B
:1006E00041E9BAEC1CF00009FCE1010EE66EF5EC04
:1006F00018F041E9100EE66E270EE66E15EC08F0D4
:100700000501010EBF6F12007CDB83E900500BE096
:10071000010E01EBF3FF015204E0D890E836F30636
:10072000FCE18D120BD0010E01EBF3FF015204E04E
:10073000D890E836F306FCE1E81C8D16F3EF07F0DD
:1007400060DB81E950E8016A010E026E030E036E60
:10075000070E046E0F0E056E1F0E066E3F0E076E1F
:100760007F0E086E09680A6A0A50070847E3C80E38
:100770000F6E106A0D6A0E6AD8900E5004E62C0EA9
:100780000D5C010E0E582AE2103428E20F500008CA
:10079000000E105423E20B6A0C6A0E340C500E1833
:1007A00004E60D500B5C0E500C5803E2E66A46DB83
:1007B000F4D70B6A0C6A10340C50101804E60F5072
:1007C0000B5C10500C5804E2010EE66E37DBF3D7D9
:1007D0000D2A000E0E220F06105ACED70101D95055
:1007E000010FF16FDACFF2F10A28EA6AF125E96E1A
:1007F000DA50EA22EF1C8D6E0A2AB6D751E9E7CF0C
:10080000D9FF1200D9CFE6FFE1CFD9FF81E94CE84B
:10081000880E036E130E046E120EE66E220EE66E46
:1008200030EC16F042E9120EE66E220EE66EDFECB8
:1008300016F042E93CDF84DFFCAE14D0FC9EDC0EF7
:10084000E66E2E0EE66E000EE66E94EC1AF043E9AC
:10085000BBDEB70EE66E2E0EE66E000EE66E94EC74
:100860001AF043E9FCAC14D0FC9CDC0EE66E2E0EB4
:10087000E66E000EE66E94EC1AF043E9A5DE8D0EEE
:10088000E66E2E0EE66E000EE66E94EC1AF043E96C
:1008900005010F5113E0DC0EE66E2E0EE66E000E23
:1008A000E66E94EC1AF043E98FDE640EE66E2E0ECF
:1008B000E66E000EE66E94EC1AF043E90501105165
:1008C00013E0DC0EE66E2E0EE66E000EE66E94EC85
:1008D0001AF043E979DE3B0EE66E2E0EE66E000E50
:1008E000E66E94EC1AF043E90401016B026B04011B
:1008F000600E336F000E346F0401000E356F030E6F
:10090000366F0401000E376F060E386F0401000EBB
:10091000396F070E3A6F05013D0E036F040E046F29
:100920000501000E056F020E066F33C4E6FF34C4E6
:10093000E6FF9DEC13F042E935C4E6FF36C4E6FF5E
:100940009DEC13F042E937C4E6FF38C4E6FF9DECA6
:1009500013F042E939C4E6FF3AC4E6FF9DEC13F018
:1009600042E903C5E6FF04C5E6FF9DEC13F042E94A
:1009700005C5E6FF06C5E6FF9DEC13F042E9EFEC86
:1009800016F00501010E0D6FA50EE66E070EE66E60
:1009900090EC1BF042E92A0EE66E2E0EE66E000E7B
:1009A000E66E08EC1BF043E905016251056E6351E8
:1009B000066E6451076E6551086E05016251096E3D
:1009C00063510A6E64510B6E65510C6E040033C4A2
:1009D000E6FF34C4E6FFAAEC13F042E9000901E1A6
:1009E000B7D005EBF1F106EBF2F107EBF3F108EB11
:1009F000F4F10A0E0101F127000E0101F223000EAD
:100A00000101F323000E0101F423620EE96E050ECD
:100A1000EA6EEE500101F15DEE50F259EE50F359DD
:100A2000EE50F45901E393D0510EE66E010EE66EDE
:100A300003C4E6FF04C4E6FF05C4E6FF06C4E6FF00
:100A4000F1DC46E9A10EE66E010EE66E0BC4E6FF90
:100A50000CC4E6FF0DC4E6FF0EC4E6FFE3DC46E986
:100A6000930EE66E020EE66E0FC4E6FF10C4E6FFBC
:100A700011C4E6FF12C4E6FFD5DC46E9A10EE66E1E
:100A8000010EE66E930EE66E020EE66E510EE66EF7
:100A9000010EE66E060EE66E2E0EE66E000EE66E99
:100AA000000EE66E010EE66E95EC19F04BE90101C1
:100AB000146B9188C00EE66ED0EC18F041E9000E80
:100AC000E66E010EE66EEFEC1BF042E904012751E1
:100AD0000401295D0101F16F0401285104012A5923
:100AE0000101F26FF1C1E6FFF2C1E6FF27C4E6FFA4
:100AF00028C4E6FF29C4E6FF2AC4E6FF23C4E6FFB4
:100B000024C4E6FFE00EE66E2D0EE66E000EE66EE5
:100B1000000EE66E010EE66E95EC19F04DE901014E
:100B2000146B940EE66ED0EC18F041E9000EE66E00
:100B3000010EE66EEFEC1BF042E99198050162515F
:100B4000056E6351066E6451076E6551086EB2D032
:100B50000301D86BD96BDA6BDB6B33C4E6FF34C4AB
:100B6000E6FFAAEC13F042E900092CE133C4E6FFEA
:100B700034C4E6FFBFEC13F042E9F3CFDCF3F4CF6B
:100B8000DDF30301DD51E00BE842E842E842E842D0
:100B9000E842E66EFF0E0301DC150101F16F030E62
:100BA0000301DD150101F26FF1C1E6FFF2C1E6FFBD
:100BB00066EC15F043E90301D82B000ED923DA23A4
:100BC000DB23CBD709EBF1F10AEBF2F10BEBF3F1FD
:100BD0000CEBF4F10101F12B000E0101F223000EE8
:100BE0000101F323000E0101F423620EE96E050EEC
:100BF000EA6EEE500101F15DEE50F259EE50F359FC
:100C0000EE50F45957E2030E0126000E0222030EA5
:100C1000035E000E045A9184E66AE66A01EBE6FF81
:100C200002EBE6FFC4EC15F044E9000901E0919CF9
:100C3000010EE66EE66A03EBE6FF04EBE6FFC4ECAA
:100C400015F044E9000901E0919CE66A010EE66EA8
:100C500097EC1BF0F3CFE6FFF4CFE6FFC4EC15F002
:100C600044E9000901E0919C010EE66E010EE66E7A
:100C700097EC1BF0F3CFE6FFF4CFE6FFC4EC15F0E2
:100C800044E9000901E0919CE66A020EE66E800EDE
:100C9000E66EE66AC4EC15F044E9000901E0919CB7
:100CA00005016251096E63510A6E64510B6E655104
:100CB0000C6E9194C650800B03E1C650400B14E0BB
:100CC000C69CC69E010EE66E03C5E6FF04C5E6FFA0
:100CD00011EC14F043E9010EE66E05C5E6FF06C50A
:100CE000E6FF11EC14F043E971D64DE9E7CFD9FFE7
:100CF0001200E66EE66AE66AE66A5AD90BEC0FF075
:100D0000E552E5CFF8F1E5CFF7F1E5CFF6F1E7CF22
:100D1000F5F10101F551F15D0501AA6F0101F651EF
:100D2000F2590501AB6F0101F751F3590501AC6FA1
:100D30000101F851F4590501AD6F12004EEC0EF0AF
:100D4000E552E5CF9FF5E5CF9EF5E5CF9DF5E7CFE1
:100D50009CF562D9E5EF07F0E552E5CFF4F1E5CF78
:100D6000F3F1E5CFF2F1E7CFF1F1120002EBE9FF89
:100D700003EBEAFFD890E936EA36D890E936EA364E
:100D8000930EE926060EEA221200E66E0CEF08F03A
:100D9000E66AE66A7A0EE66E440E02EF08F0EC0EA2
:100DA000E96E030EEA6E0101F151EE5C0301EC6F96
:100DB0000101F251EE580301ED6F0101F351EE58BC
:100DC0000301EE6F0101F451EE580301EF6F1200C1
:100DD000F80EE96E030EEA6E0101F151EE5C0301BB
:100DE000F86F0101F251EE580301F96F0101F3515F
:100DF000EE580301FA6F0101F451EE580301FB6F45
:100E00001200D9CFE6FFE1CFD9FF1200E66E00EB6A
:100E1000E6FF01EBE6FF95EF19F0ECEC01F044E999
:100E2000FCC3F1F1FDC3F2F1FEC3F3F1FFC3F4F132
:100E3000120000EBF3FF01EBF4FFD5D00AEBE6FF65
:100E400063DC42E9020EE66EE66AEFD80B2A000E7A
:100E50000C221200FCC3E6FFFDC3E6FFFEC3E6FF63
:100E6000FFC3E6FF12000150EA6AD20FE96E030EDB
:100E7000EA221200100EE66E0E0EE66EE66AE66AD2
:100E80001200140EE66EE66AE66A01EBE6FFE66A19
:100E9000E66AABEC0EF0E5521200D4D8EFC3E6FFE1
:100EA00008EC0EF0E55212000101830EF16F020E04
:100EB000F1C1F3FFF46E97D0F8C3E6FFF9C3E6FF84
:100EC000FAC3E6FFFBC3E6FF08EC0EF0E5521200A2
:100ED000E66EABD82B0EE66E3CEC18F041E9120042
:100EE0003C0EE66EE66AE66AE66A1200EECFE6FFC0
:100EF000EECFE6FFEECFE6FFEECFE6FF5CEF0FF0C2
:100F000085E90050C0084E0E0154CF0E0254120E57
:100F100003541200C00E006E4E0E016ECF0E026E14
:100F2000120E036E1200E4C3E6FFE5C3E6FFE6C35C
:100F3000E6FFE7C3E6FF1200E8C3E6FFE9C3E6FF0A
:100F4000EAC3E6FFEBC3E6FF1200F0C3E6FFF1C31E
:100F5000E6FFF2C3E6FFF3C3E6FF1200F4C3E6FFC9
:100F6000F5C3E6FFF6C3E6FFF7C3E6FF1200AAC526
:100F7000E6FFABC5E6FF46EF08F0A0C5E6FFA1C55A
:100F8000E6FFA2C5E6FFA3C5E6FF1200E66E830EEC
:100F9000E66E020EE66E95EF19F0D3EC01F042E931
:100FA000F3CFE6FFF4CFE6FF1200EFDE3CEF08F0F0
:100FB0006DD8A8C5E6FFA9C5E6FF1200E66AE66A95
:100FC000C80EE66E420EE66E1200ADEC0DF0E55274
:100FD000E5CFA9F5E5CFA8F5E5CFA7F5E7CFA6F5CD
:100FE000E66AE66A120041E9E7CFD9FF12000BEC8E
:100FF0000FF0ACEF06F005DF87E9CADE86EC0DF0F6
:101000009EEF06F0E66E02EBE6FF03EBE6FF04EB75
:10101000E6FF05EBE6FF12009CC5E6FF9DC5E6FF77
:101020009EC5E6FF9FC5E6FF1200E66AE66A4DEC44
:1010300000F044E91200E5DE87E90501200E156F96
:1010400005341200ECC3E6FFEDC3E6FFEEC3E6FF96
:1010500012004FDEAAC5E6FFABC5E6FF1200200E68
:10106000E66E410EA2DF0A0E79EF06F0C80EE66EBC
:10107000420E9BDF640E12005CEC0FF0ADEC0DF045
:10108000ACEF06F09BDF72DE76EF07F0A6C5E6FF59
:06109000A7C5E6FF1200F7
:0A10960090DB86E901500106000915
:1010A0000CE002EBE6FF03EBE6FF00EBE6FF69DB9B
:1010B000F4E1F21DF2E1010E01D0000E41E9E5CFAD
:1010C000DAFFE7CFD9FF120077DB89E97BE80A6A0C
:1010D0000B6A02EBF6FF03EBF7FF04EBF8FF0800E7
:1010E000F550096E095001E12DD3250E095C01E090
:1010F0001BD30C6A0D6A0E6A0F6A106A2DDB2D0E67
:10110000095C0CE02B0E095C09E0200E095C06E08E
:10111000230E095C03E0300E095C15E10950300A2A
:1011200010E0130A0CE0030A08E00B0A04E0060AC8
:10113000E5E10C80E3D70C82E1D70C84DFD70C8685
:10114000DDD70C88DBD72A0E095C13E1A5DB0DE3A4
:101150000C801CEBF1F11DEBF2F10101F16DF21FBE
:10116000000EF223F1510D6E02D09CEB0DF0F4DA7B
:1011700007D0126A3FDB02E06BDBFCD792EB0DF08D
:101180000CB00C982E0E095C15E1E6DA2A0E095C0B
:1011900008E182DB04E29CEB0EF0010E0F6EDCDA5C
:1011A00009D0126A27DB02E053DBFCD792EB0EF08A
:1011B000010E0F6E680E095C07E1CEDA680E095C5D
:1011C0001DE1030E106E19D0740E095C16E07A0E44
:1011D000095C13E0480E095C06E0540E095C03E06C
:1011E0005A0E095C02E1020E07D06C0E095C03E0A6
:1011F0006A0E095C03E1010E106EAEDA09506E0A48
:1012000001E16ED21E0A01E128D1200A01E125D1B7
:101210003F0A01E1FDD01A0A01E1FAD00D0A01E10D
:10122000F7D0200A01E1F4D03A0A01E1F1D0200A16
:1012300001E1EED0260A01E1EAD00D0A01E1E7D092
:101240001A0A01E19ED0200A3BE0300A1AE0460A61
:101250000EE0250A01E072D2D950020FE96E000EAD
:10126000DA20EA6E010EEE5E000EEE5AEE5A0FDB49
:10127000250EE66E86DA03E1F21D01E159D20A2A53
:101280005BD2116A0D50010803E20D04116EF5DA0C
:10129000115007E0010E0C1404E16DDA01E048D2B0
:1012A000116AD3DAEF50096ECBDA03E1F21D01E1E6
:1012B0003FD20A2A000E0B225EDA01E13FD238D279
:1012C000020E105C08E1030E4EDAEE50176EEE507F
:1012D000186EEF5007D0E7DAF36BF151176EF25149
:1012E000186EF351196E17EBE6FF18EBE6FF19EBDA
:1012F000E6FF09EC18F043E9FCC3F1F1FDC3F2F19C
:10130000FEC3F3F10101F1511C6EF2511D6E0F503D
:1013100006E01C500E5C03E20E501C6E1D6A1C5051
:101320000D5C02E29CEB0DF050DA05E00D500E5C16
:1013300002E28EEB0DF00CB004D01DDA01E0F8D122
:10134000116A126A17EBF6FF18EBF7FF19EBF8FFBB
:101350000800F550096E095010E00D50125C0DE2C6
:101360006FDA03E1F21D01E1E3D10A2A000E0B223C
:10137000122AD950170F55DAEBD7FDD901E1DED18A
:10138000D7D163DAEE501A6EED501B6E1AEBE6FF02
:101390001BEBE6FF2EEC18F042E9F3501C6EF45004
:1013A0001D6E0F5006E01C500E5C03E20E501C6ECA
:1013B0001D6A1C500D5C02E29CEB0DF006DA05E0A4
:1013C0000D500E5C02E28EEB0DF00CB004D0D3D9C0
:1013D00001E0AED1116A126A1AEBE9FF1BEBEAFFDA
:1013E000EF50096E09500FE00D50125C0CE228DA44
:1013F00003E1F21D01E19CD10A2A000E0B22122A00
:101400001A2A1B22E9D7B7D901E198D191D10C8EC4
:1014100010040AE1040EA7D9EE50136EEE50146EBC
:10142000EE50156EEF5032D0030E105C16E10CAE8C
:101430000CD00BDAEFCFF1F10101F26BF36BF46B2F
:10144000F1AF23D0F269F3691FD0FFD9EFCFF1F1EB
:101450000101F151136E146A20D0020E105C0CE1F0
:101460000CAE06D0030E7FD9B6D9F3AF0ED00CD098
:10147000030E79D9B0D909D00CAE0AD014DAF36BC7
:10148000F46BF2AF02D0F369F469BCD9166E07D0E1
:101490000ADAF151136EF251146E156A166A0F5082
:1014A00002E1010E0E6E1E6A1F6AD950400FE66EF1
:1014B000000EDA20E66EE552E550436EE750426ECC
:1014C000416A116A0A0E106E0950780A12E0200A69
:1014D00010E0280A0CE0200A0AE03F0A06E00D0AA4
:1014E00002E0200A08E1020E05D0080E03D0080E23
:1014F0000926100E106E0CBE02D00C920C94800EB9
:101500000C1417E0163415E3E668E668E668E6684A
:1015100042D90BEC0FF0E552E5CFF4F1E5CFF3F152
:10152000E5CFF2F1E7CFF1F101016CD9166E2D0E86
:1015300007D00CA202D02B0E03D00CA404D0200E96
:10154000206E1E2A01D0206A0E5005E1135014109F
:101550001510161061E00101300EF16F3A0EF26FB6
:10156000000EF36F83D90BEC0EF0E552E5CFF7F1E7
:10157000E5CFF6F1E5CFF5F1E7CFF4F10101F15157
:10158000F425F36EF251F521F46EF351F621F86E65
:10159000F4CFF7FFF3CFF6FF0800F550126E580EA8
:1015A000095C05E1610E125C02E3200E125E5ED959
:1015B00008EC0EF0E552E550166EE550156EE5505C
:1015C000146EE750136E42EBE9FF43EBEAFF42066D
:1015D000000E435A12EBEFFF1E2A13501410151081
:1015E0001610B9E10CA619D06F0E095C06E10E5079
:1015F0001E5C13E31E280E6E10D0780E095C09E005
:10160000580E095C06E0620E095C03E0420E095CBC
:1016100004E1020E1F6E01D01E6A100E0C1407E0CA
:101620000D500E5C04E20F5002E18DEB0EF00E50F7
:101630001E5C03E21E500E5E01D00E6A0E501E2488
:101640001F24D8800D5407E20E500D5CD8801E5424
:10165000D8801F54116E010E0C1406E1115004E0E5
:101660008AD866E10AD9116A205007E010D920EB28
:10167000E6FF87D802E1F21D5BE01F500BE007D9BF
:10168000300EE66E7ED802E1F21D52E0D9D802E1BA
:10169000F21D4EE00E501F5C02E21F500E5E300E37
:1016A000E66E0EEBE6FFDCD843E1422A000E432251
:1016B00042EBE9FF43EBEAFFEF50126E125008E0F5
:1016C000E6D812EBE6FF5DD8F0E1F21DEEE130D096
:1016D00052D82EE10E501E2411241F240A262CD08D
:1016E0001050030A1CE0010A14E0030A07E0ADD819
:1016F000C9D80AEBEEFF0BEBEDFF20D08BD8F46BD3
:10170000F2AF02D0F369F469A0D84ED8F4C1EEFF6D
:1017100015D080D8F2BFF36998D846D80FD095D8A5
:10172000B1D80AEBEFFF0AD08BD805E1F21D03E137
:10173000F368F4680BD00A2A000E0B22D950020F6E
:1017400070D8CDD40AEBF3FF0BEBF4FF7CE9E5CFC7
:10175000DAFFE7CFD9FF1200D950020F62D8080094
:10176000F550096E1200005E000E015A00EBE9FF11
:1017700001EBEAFF1200200EE66E11EBE6FF30EF00
:101780000CF0CEEC19F043E9F3CFF1F1F4CFF2F124
:101790000101F31C120013EBE6FF14EBE6FF15EB5F
:1017A000E6FF16EBE6FF12006DD8F1C1EEFFF2C1C5
:1017B000EEFFF3C1EEFF1200D9CFE6FFDACFE6FF6E
:1017C000E1CFD9FFE2CFDAFF12001C500D5C116EA1
:1017D00054D80F501200EECFF1F1EECFF2F1EFCF6F
:1017E000F3F10101F46B1200EECFF1F1EFCFF2F162
:1017F000010112000950E66EE66AD0EC1CF042E9E5
:10180000F3501200F151136EF251146EF351156E34
:10181000F45112000AEBF1F10BEBF2F10101F36B61
:101820001200E96E000EDA20EA6EEF2AEECFF6FF24
:10183000000EEF22EECFF7FFEF22EECFF8FF1200FF
:1018400026D809EBE6FFC1EF0BF0020EB3EF0BF069
:101850000A0E1202F3500924D00F126EACEF0BF0F7
:1018600016D84BEC08F044E90009120010EBE6FF33
:10187000E66AE66AE66ACBEF0BF011500A26000E24
:101880000B221200EE50EFCFEAFFE96E120005EBDB
:10189000E6FF06EBE6FF1200D8DFEE501C6EED50BF
:0C18A0001D6E1D341200D1DFF4EF0BF0C0
:0418AC00D88801D007
:1018B000D8984AE8D9CFE6FFDACFE6FFE1CFD9FFE3
:1018C000E2CFDAFF94E9D8B8037E086A58EC0DF04D
:1018D00070EC0DF008B63CEF0DF008A20AD008AA93
:1018E00003D008BE3CEF0DF008A448EF0DF045EF23
:1018F0000DF008AA05D008AC48EF0DF045EF0DF04B
:1019000008A00AD008A808D008BE04D008A402D0B5
:1019100051EF0DF055EF0DF0096A0E6A0350075CA8
:10192000106E10E384EB0AF085EB0BF086EB0CF005
:1019300087EB0FF080EB04F081EB05F082EB06F013
:10194000083A09D080EB0AF081EB0BF082EB0CF047
:1019500083EB0FF0106C089E08BC088E8FEB0DF027
:1019600008B027EF0DF01A0E106027EF0DF00D6A8A
:10197000076A08A408D0046C051E061E071EE86A44
:1019800005220622072208AC08D00A6C0B1E0C1E8A
:101990000D1EE86A0B220C220D22116A105207E07C
:1019A00007340632053204321132102EF9D70450B2
:1019B0000A2605500B2206500C2207500D2291EBEF
:1019C00009F0089E0DAE0BD0096C0A1E0B1E0C1EF2
:1019D0000D1EE86A0A220B220C220D22088E0DA091
:1019E00006D0D8800C320B320A3209320F2A8FEB24
:1019F0000DF0FBEF0CF00C500B100A10091055E025
:101A00000EBE4DD00CBE0CD00D500E1048E0D8903C
:101A100009360A360B360C360D06D8A00E06F2D75C
:101A20000E5031E10D282FE009AE11D07F0E0914C0
:101A300002E10AA00CD00A2AE86A0B220C2207E372
:101A4000D8800C320B320A320D2A0D281CE00D50C2
:101A500026E08AEB00F08BEB01F00C34026E0D30C7
:101A6000036E0232039E08BE038EE552E5CFDAFF15
:101A7000E7CFD9FF4EE912007F0E036EFF0E026E14
:101A8000016E006EF2D77F0E08BEFF0E036E02D00D
:101A90007F0E036E800E026E016A006AE6D708AE02
:101AA00004D0800E036E026AF7D7036A026AF4D785
:101AB0000636073602E30884087E06E10880076AD6
:101AC000066A056A046A1200072803E0D880063215
:101AD0001200D890063202E1088212000886120035
:101AE0000236033602E3088C087E06E10888036AA2
:101AF000026A016A006A1200032803E0D8800232F9
:101B00001200D8900232EAE1088A1200D89801D077
:101B1000D8884EE8D9CFE6FFDACFE6FFE1CFD9FF8C
:101B2000E2CFDAFF94E9089E0BE703AE09D0006C20
:101B3000011E021E031EE86A012202220322088EF1
:101B400083EB0CF082EB0BF081EB0AF080EB09F0F9
:101B50009E0E0D6E0E6AFBEF0CF045E8D9CFE6FF46
:101B6000DACFE6FFE1CFD9FFE2CFDAFF8BE9086AEF
:101B700070EC0DF008B6C1EF0DF008AA0FD008BC4C
:101B800007D07F0E036EFF0E026E016E006E2DD029
:101B9000800E036E01D0036A000EF6D708B8FBD79B
:101BA000076A9F0E0360EBD77E0E0364F4D79E0E88
:101BB000035C07E0D8900232013200320732032A78
:101BC000F6D708AC0AD0076C001E011E021EE86A98
:101BD00000220122022202AEDED782EB03F081EB6B
:101BE00002F080EB01F087EB00F0E552E5CFDAFF81
:101BF000E7CFD9FF45E9120045E8D9CFE6FFDACFB4
:101C0000E6FFE1CFD9FFE2CFDAFF8FE90C6A1200DD
:101C1000F3DF0C8003D0F0DF01D00C820B6A0A6A7C
:101C2000096A086A200EE76ED89004360536063633
:101C30000736083609360A360B360050085C015064
:101C4000095802500A5803500B5809E30050085E27
:101C50000150095A02500A5A03500B5A042AE72E1F
:101C6000E4D70CB212000CB00AD088EB00F089EB7C
:101C700001F08AEB02F08BEB03F00CA008D084EBB0
:101C800000F085EB01F086EB02F087EB03F0E55204
:101C9000E5CFDAFFE7CFD9FF49E912004AE8D9CF0B
:101CA000E6FFDACFE6FFE1CFD9FFE2CFDAFF94E932
:101CB000086A58EC0DF070EC0DF008B63CEF0DF032
:101CC00008A205D008BA3CEF0DF043EF0DF008BABA
:101CD0004FEF0DF008A005D008B83CEF0DF04FEF26
:101CE0000DF008B843EF0DF00E6A7F0E07240D6E5D
:101CF000E86A0E2203500D5EE86A0E5A1A0E0F6E45
:101D0000076A096A0A6A0B6A0C6A0050045E01508D
:101D1000055A0250065A000E075A09E700500426D9
:101D20000150052202500622000E072201D0098A26
:101D3000D8900436053606360736D89009360A3666
:101D40000B360C360F2EE1D7065005100410D8A420
:101D5000098AFBEF0CF046E8D9CFE6FFDACFE6FFC1
:101D6000E1CFD9FFE2CFDAFF8EE980EB06F081EB1D
:101D700007F082EB08F085EB0BF084EB0AF083EBC5
:101D800009F003500602F450016EF350006E045047
:101D90000702F450036EF350026E04500602F35033
:101DA0000126F4500222E86A032209500702F35088
:101DB0000126F4500222E86A032205500602F3507D
:101DC0000226F450032205500702046AE86A04223E
:101DD000F3500326F450042209500802F35002265F
:101DE000F4500322056AE86A042205220A50080218
:101DF000F3500326F4500422E86A05220B5008022F
:101E0000F3500426F4500522E552E5CFDAFFE7CF80
:101E1000D9FF49E9000C44E8D9CFE6FFDACFE6FF65
:101E2000E1CFD9FFE2CFDAFF8EE980EB08F081EB5A
:101E300009F082EB0AF083EB0BF004500802F35038
:101E4000006EF450016E04500902F3500126000E9A
:101E5000F420026E04500A02F3500226000EF42011
:101E6000036E04500B02F350032605500802F35092
:101E70000126F4500222000E032205500902F350FD
:101E80000226F450032205500A02F350032606509E
:101E90000802F3500226F450032206500902F350C0
:101EA000032607500802F3500326E552E5CFDAFF78
:101EB000E7CFD9FF48E9000C4AE8D9CFE6FFDACFEF
:101EC000E6FFE1CFD9FFE2CFDAFF94E9086A58ECE8
:101ED0000DF070EC0DF008B63CEF0DF008A205D047
:101EE00008B83CEF0DF043EF0DF008AA05D008B09C
:101EF0003CEF0DF043EF0DF008B002D008A802D07F
:101F00004FEF0DF00E6A035007240D6EE86A0E22A3
:101F10007E0E0D5EE86A0E5A096A0A6A0B6A0C6A3E
:101F200002500602F4500C6EF3500B6E0150060284
:101F3000F3500A26F4500B22000E0C220250050228
:101F4000F3500A26F4500B22000E0C220050060219
:101F5000F3500926F4500A22000E0B220C220150E5
:101F60000502F3500926F4500A22000E0B220C221F
:101F700002500402F3500926F4500A22000E0B22EC
:101F80000C2200500502F4500926000E0A220B22F2
:101F90000C2201500402F4500926000E0A220B22E2
:101FA0000C22FBEF0CF044E8D9CFE6FFDACFE6FFD6
:101FB000E1CFD9FFE2CFDAFF8AE980EB04F081EBD1
:101FC00005F082EB06F002500402F450016EF3506B
:101FD000006E0350076E0502F450036EF350026E5C
:101FE00007500402F3500126F4500222E86A03224B
:101FF00006500502F3500126F4500222E86A03223B
:0E200000E552E5CFDAFFE7CFD9FF46E9000C45
:02200E00DACF27
:10201000E4FFE2CFDAFFE9CFE4FFEACFE4FFFCC35D
:10202000E4FFFDC3E4FFFEC3E4FFFFC3E4FFF6CF1C
:10203000E4FFF7CFE4FFF8CFE4FFF5CFE4FFF3CF01
:10204000E4FFF4CFE4FFFACFE4FFFBCFE4FF01EEBF
:10205000F1F00F0EE80403E3EECFE4FFFBD7E65206
:10206000D9CFE6FFE1CFD9FF81E942E891800501B0
:102070002A2B000E2B232C232D239D50400B34E0C4
:102080009E50400B31E005015E2B000E5F23602364
:1020900061239E9CC3CFEDF0C4CFEEF0040101514B
:1020A0000001070BF36EF346F346F346F346F3469F
:1020B0001F0EEE15F310EE6FEDC0E6FFEEC0E6FF6B
:1020C00033C4E6FF34C4E6FFEFEC13F044E9040147
:1020D0000151070B02E1918601D091960401012B79
:1020E000000E02230001FA6BA350080B01E167D137
:1020F000A450080B01E163D1A496110E776E05017F
:102100003A2B000E3B233C233D23C2B211D0070ED5
:10211000040101150F0BF36EF346F346C30EC21410
:10212000F310C26E0001FA51FA2B000901E0C282DD
:1021300003C5E6FF04C5E6FFAAEC13F042E9000977
:102140005FE1F00EC6140009C66E03C5E6FF04C5C4
:10215000E6FFBFEC13F042E9F3CFF1F0F4CFF2F079
:1021600000010001F251020B02E08B8E01D08B9E28
:102170000001F2510C0BE842E842030A16E0010AA2
:102180000FE0030A08E0010A01E014D08B908B8273
:102190008B848B8C14D08B808B928B848B8C0FD008
:1021A0008B808B828B948B8C0AD08B808B828B84E0
:1021B0008B9C05D08B808B828B848B8C00D0F1C064
:1021C000C9FF0001F2A11CD000000001F2510C0B6C
:1021D000E842E842030A0DE0010A09E0030A05E0CB
:1021E000010A01E008D08B800BD08B8209D08B8450
:1021F00007D08B8C05D08B808B828B848B8C00D00E
:1022000035C4E6FF36C4E6FFAAEC13F042E9000944
:1022100008E00001F0511C0BE842E842000901E12E
:10222000CAD00001F0511C0BE842E842040A01E167
:1022300092D0070A01E177D0010A56E0030A3CE098
:10224000010A01E094D035C4E6FF36C4E6FFBFECD6
:1022500013F042E9F3CFEFF0F4CFF0F0EFC0F3F07A
:102260000001F095F097F0990001F09B0F0E991680
:102270000F0E8716F00E0001F31587120001F0A370
:1022800002D0909201D090829094EF0EE96E000EF1
:10229000EA6EEE52EF501C0BE842E842E82AF36E79
:1022A000F350070BF36EF46EF346F346E30EEF14B0
:1022B000F310EF6EF45079D09086EF0EE96E000EB9
:1022C000EA6EEE52EF501C0BE842E842E82AF36E49
:1022D000F350070BF36EF46EF346F346E30EEF1480
:1022E000F310EF6EF45061D090960F0E8716000138
:1022F000F339F00BF00B8712EF0EE96E000EEA6E69
:10230000EE52EF501C0BE842E842E82AF36EF3501D
:10231000070BF36EF46EF346F346E30EEF14F3107F
:10232000EF6EF45042D09086EF0EE96E000EEA6E2A
:10233000EE52EF501C0BE842E842E82AF36EF350ED
:10234000070BF36EF46EF346F346E30EEF14F3104F
:10235000EF6EF4502AD00001F0BB09D09096F00E39
:1023600099120501722B000E73237423752300014B
:10237000F0A116D00001F08B0001FD51FD2B0201F0
:10238000E56F080E0201E76EE51902E7E73402D0B7
:10239000E750E55D04E30001F0910001FD6B04D01E
:1023A0000001F095F097F09900D00001F0B102D053
:1023B000070E776E04D00001F095F097F0999D50CC
:1023C000080B14E09E50080B11E00501072B000ECE
:1023D000082309230A239E96C950E66EE66A05C5BE
:1023E000E6FF06C5E6FFEFEC13F044E9F0A407D0E2
:1023F000F09405014E2B000E4F2350235123F2A0E1
:10240000A4D0F29081CFFCF005011E2B000E1F23FB
:10241000202321230501010E0E6F300E0001FC1553
:102420000301A76F0301A55D43E00301916BA7C3FF
:10243000A5F38150100B01E0010E0201E56F0301CD
:10244000A451100B01E0FF0E0201E55D2AE181506D
:10245000200B01E0010E0201E56F8150100B01E03D
:10246000010E0201E55D0EE10301832B000E8423C2
:10247000852386230301010E8F6F0301906B0301F7
:10248000926B0ED003018307000E845B855B865B35
:1024900003018F6B0301010E906F0301020E926F17
:1024A00007D003018150100B02E0A48901D0A49948
:1024B000C00E0001FC150301A86F0301A65D43E0F7
:1024C0000301A16BA8C3A6F38150400B01E0010EEC
:1024D0000201E56F0301A451400B01E0FF0E020170
:1024E000E55D2AE18150800B01E0010E0201E56FFC
:1024F0008150400B01E0010E0201E55D0EE1030198
:10250000932B000E9423952396230301010E9F6FB6
:102510000301A06B0301A26B0ED003019307000E11
:10252000945B955B965B03019F6B0301010EA06FAB
:102530000301020EA26F07D003018150400B02E09D
:10254000A48D01D0A49D0001FB6BA1A808D00501BA
:10255000262B000E2723282329239070A198F2A46C
:1025600014D0F2946A0E016E670E026E02EBD7FF72
:1025700001EBD6FF0501010E0C6F90700501222BB7
:10258000000E232324232523918EA4AA14D0050111
:10259000362B000E3723382339236BA202D06B98D9
:1025A0006B886E50E66EE66A37C4E6FF38C4E6FF15
:1025B000EFEC13F044E9F2A211D0F2920501422BA4
:1025C000000E43234423452305010D5105E08150AE
:1025D000010B02E10301C0810001FB6BF0A011D0EF
:1025E000F0900501462B000E47234823492305019F
:1025F0000D5105E08150020B02E10301C08300018F
:10260000FB6BF0A211D0F09205014A2B000E4B2378
:102610004C234D2305010D5105E08150040B02E1CF
:102620000301C0850001FB6B919043E9E7CFD9FF1F
:10263000E55201EEFFF00F0EE80403E3E5CFEDFFF6
:10264000FBD7E5CFFBFFE5CFFAFFE5CFF4FFE5CF02
:10265000F3FFE5CFF5FFE5CFF8FFE5CFF7FFE5CFD7
:10266000F6FFE5CFFFF3E5CFFEF3E5CFFDF3E5CFD2
:10267000FCF3E5CFEAFFE5CFE9FFE5CFDAFF110094
:10268000D8CFE4FFE0CFE4FFE46EDACFE4FFE2CF9F
:10269000DAFFE652D9CFE6FFE1CFD9FF81E942E880
:1026A000918205012E2B000E2F2330233123A1A26E
:1026B0000ED0A192E80E016E0B0E026E02EBB3FF7C
:1026C00001EBB2FF622B000E63236423652391921A
:1026D00043E9E7CFD9FFE552E5CFDAFFE550E5CF93
:1026E000E0FFE5CFD8FF10000501010EA46F040044
:1026F0000501A46B12006CA2FED712000301C09169
:06270000C093C095120019
:0A270600ACD841E80128036E005032
:10271000035C01E3036A035042E9E7CFD9FF1200EB
:102720009FD841E8015002E1000401D00104036E8A
:10273000035042E9E7CFD9FF120092D8830EE66E2C
:10274000E66AE66A00EBE6FF01EBE6FFEFEC17F066
:1027500045E98FD085D881D8EF5002E0000E01D036
:10276000010E87D07DD879D89BD802E7E73402D014
:10277000E750F15D02E2000E01D0010E7AD070D870
:1027800042E86BD8EFCFF1F10101E76EF11902E7F2
:10279000F13502D0F151E75C18E298D88ED863D8B1
:1027A000EFCFF3F1F46BF3BFF46967D8EE50036E2B
:1027B000ED50046E400EE66E56D879D854D8E552E6
:1027C000E750EF6E4AD8EF0602D0036A046A03EBC3
:1027D000F3FF04EBF4FF43E9E7CFD9FF12007BD806
:1027E00085E955D85DD802E7E73402D0E750F15DBE
:1027F00017E276D862D83AD8EFCFF3F1F46BF3BF93
:10280000F4693BD800EBEEFF01EBEDFF400EE66E06
:102810002DD84DD82BD8E552E750EF6E38D8EF2A97
:1028200028D059D884E961D8820E34D8800E32D8A5
:10283000810EE926000EEA22EF6A00500DE0800EBC
:10284000E66EE66AE66A51D838D8E9CFE6FFEACF05
:10285000E6FFEFEC17F045E90CD038D8820E32D005
:102860003AD883E9120032D8810E2CD039D8800EA4
:1028700029D041E9E7CFD9FF1200D890F337F437D8
:10288000F151F325E96EF251F421EA6E120028D8D5
:10289000820E18D0E926000EEA22EF6A75EF14F0D6
:1028A000EFCFF1F1400E0101E76EF1191200EFCF09
:1028B000E6FF29DF42E9E66E1200E9CFF1F1EACF47
:1028C000F2F11200E926000EEA22120000EBE9FF05
:1028D00001EBEAFF1200D9CFE6FFE1CFD9FF1200EA
:1028E00002EBE9FF03EBEAFF120001EBE9FF02EB69
:0428F000EAFF1200E9
:0C28F400D9CFE6FFE1CFD9FF82E9000058
:10290000F250400B01E0010EE66E0501BE51EA6A8D
:102910008B0FE96E060EEA22E552E750EF6E00B229
:10292000F29CF250800B01E0010EE66E0501BE51F3
:10293000EA6A830FE96E060EEA22E552E750EF6E6F
:1029400000B0F29E0501112B000E12231323142355
:102950000501BE2B05010B510501D880BE5502E2D1
:10296000BEC50BF50501BE050DE1F250800B01E07F
:10297000010E0201E36FF29E0201E351E8B0F28E14
:10298000E8A0F29E41E9E7CFD9FF1200000005015F
:10299000BE512BE00501BE070501BE510DE1F2500D
:1029A000800B01E0010E0201E46FF29E0201E4518E
:1029B000E8B0F28EE8A0F29E0501BE51EA6A830FEC
:1029C000E96E060EEA22EF50E8B0F28EE8A0F29E21
:1029D0000501BE51EA6A8B0FE96E060EEA22EF503E
:1029E000E8B0F28CE8A0F29C04D0F28EF28C2A0EB1
:1029F0006D6E12000501BE6BF28EF28C1200D9CF03
:102A0000E6FFE1CFD9FF87E90250031016E14CD869
:102A1000590EE66E00EBE6FF01EBE6FF01EC1AF063
:102A200043E907EC00F007EC00F004EBE6FF0101DE
:102A30000028F16F000E01202CD836D805EBE6FFF8
:102A4000020E01010224F36F000E0320F46F005008
:102A5000F325F16F0150F4211CD841E9E7CFD9FFEC
:102A60001200D9CFE6FFE1CFD9FF85E907EC00F0EE
:102A7000010102500024F16F03500120F26FF1C1F7
:102A8000E6FFE66E6FEC1BF042E941E9E7CFD9FFC4
:102A90001200F26FF1C1E6FFE66E01EC1AF043E9B5
:102AA00007EC00F0C6EF14F0030EE66E23DF41E9F9
:042AB00007EF00F03C
:0C2AB4000400C70EE66E8BEC1CF041E93C
:102AC000640EE66E0DEC1DF041E91200D9CFE6FF71
:102AD000E1CFD9FF84E9080E005C52E2EA6A0034D3
:102AE000FE0BE96EEA36230EE926040EEA2201EB1C
:102AF000EEFF02EBEDFF640EE66EE66AE66AE66A5A
:102B00000050EA6AAE0FE96E050EEA22EFCFF5F14A
:102B10000101F66BF76BF86B690EF527010EF623D2
:102B2000000EF723F823F5C1E6FFF6C1E6FFF7C173
:102B3000E6FFF8C1E6FF01EBE6FF02EBE6FFE66A1F
:102B4000E66A0BEC0FF008EC0EF0E552E5CFF4F17D
:102B5000E5CFF3F1E5CFF2F1E7CFF1F10050040D4D
:102B6000F3CFE9FFF4CFEAFF030EE926040EEA22D1
:102B7000F1C1EEFFF2C1EEFFF3C1EEFFF4C1EEFFD3
:102B800041E9E7CFD9FF1200D9CFE6FFE1CFD9FF66
:102B900085E941E8FE0E056E918C45D803E0FD0EF7
:102BA000056E38D001500A0A2DE0080A24E0020A16
:102BB00002E0010A2EE10001FF0E0214F86F0F0E71
:102BC0000314F96F0050F99FE8B0F98FF99BF98968
:102BD000F8C0F6F0F9C0F7F0F9C0F4F001502CD8C5
:102BE000F591F9C0E6FF32D8F6C0F4F00001F581A6
:102BF0001AD810E109D002EBF4F0015000011CD802
:102C0000F58102D010D806E1F4C0E6FF1FD8056AAE
:102C100001D00568919C055001E0919E055042E964
:102C2000E7CFD9FF120003C5E6FF04C5E6FFB2EC0B
:102C300013F042E900091200030BF36EF346F3466A
:102C4000F30EF515F310F56FF5931200F5C0E6FFDE
:102C500003C5E6FF04C5E6FFEFEC13F044E91200FC
:102C6000D9CFE6FFE1CFD9FF83E9120E001802E1C8
:102C7000220E011801E09FD00000D0B603D005015C
:102C8000010E0F6FA650080B06E0A650800B03E163
:102C90000501010E106F9298928092829284928622
:102CA000928A936A8A6893809382938493869388A6
:102CB000938A938C938E946A8B689568966A8D68D4
:102CC00097688F908F968F98988898869890996A31
:102CD00090689A6A91689496949A9598959C94882D
:102CE000958A94969488949A800EE66EE66AE66ACF
:102CF00065EC1AF043E99D869F869E967C86400E81
:102D0000E66EE66A6C0EE66E17EC19F043E97D6A32
:102D1000400E6F6EA4AA05D0D0EC1BF00201E96F43
:102D2000F9D7F40EE66E840EE66EA50EE66E33EC71
:102D30001AF043E9030EC16E9D8C9F8C970EE66ED0
:102D400026EC1CF041E9F50EE66EB0EC1BF041E913
:102D5000110E776EE66841EC1CF041E9A586A3866A
:102D6000F286F180F288F19CF292F086F19AF0906E
:102D7000F088F198F092F08AF196F09481CFE9F220
:102D8000F290F19E6A0EE66E670EE66E73EC1CF032
:102D900042E9E80EE66E0B0EE66E5BEC1CF042E9D3
:102DA000A292A082A088D08E9E6AA16AA46AA58AF7
:102DB000F28EF28C919241E9E7CFD9FF1200D9CF80
:102DC000E6FFE1CFD9FF83E9120E001804E1220EDD
:102DD000011801E1886841E9E7CFD9FF120012002C
:102DE000257520257520257520256420202020208C
:102DF00020202020202020202020202020202020D3
:102E0000202020202000257356202573562025736E
:102E1000562020202020202020202020202020207C
:102E2000202020202020202020005079726F204D6B
:102E3000464320436F6E74726F6C001B5B376D20CE
:102E4000506F737369626C6520454550524F4D2039
:102E50007772697465206572726F722E201B5B3009
:102E60006D0D0A001B5B376D2052657374617274BF
:102E70002066726F6D205761746368646F672054B9
:102E8000696D65722E201B5B306D0D0A001B5B3770
:102E90006D20526573746172742066726F6D205379
:102EA0007461636B20556E646572666C6F772E205B
:102EB0001B5B306D0D0A001B5B376D205265737410
:102EC0006172742066726F6D20537461636B20466B
:102ED000756C6C2E201B5B306D0D0A000D0A0025F1
:102EE0006325642E25303164002563256C692E2509
:102EF00030326C696B002563256C690025642E25D2
:102F00003031640025642E25303264002530316C68
:102F1000753A2530326C75002530316C753A2530A4
:102F2000326C753A2530326C750031303A35363AAC
:0F2F30003437004D617920313620323031360090
:102F40001E0EF66E000EF76E000EF86E0001090000
:102F5000F550E86F0900F550E96F03E1E86701D02B
:102F60003DD00900F550E36F0900F550E46F09000A
:102F7000F550E56F09000900F550E96E0900F550BC
:102F8000EA6E090009000900F550E66F0900F550E6
:102F9000E76F09000900F6CFEAF0F7CFEBF0F8CFC2
:102FA000ECF0E3C0F6FFE4C0F7FFE5C0F8FF000176
:102FB000E65302E1E75307E00900F550EE6EE6073D
:102FC000F8E2E707F9D7EAC0F6FFEBC0F7FFECC07D
:0E2FD000F8FF0001E807000EE95BBFD7120012
:022FDE00FE0EE5
:102FE000E3CFE9FFFF0EE3CFEAFFE9CFF3FFEACF3C
:102FF000F4FFFB0EE35003E1FC0EE35009E0FB0E8F
:10300000E30602E2FC0EE306FD0EE350EE6EF1D79E
:103010001200FF0EE3CFF8FFE552FF0EE3CFF7FFFC
:10302000E552FF0EE3CFF6FFE552E66AE66AE66A8E
:103030000900F55209E0FD0EE32A05E1FE0EE32A40
:1030400002E1FF0EE32AF4D7FD0EE3CFFCF3FE0E00
:10305000E3CFFDF3FF0EE3CFFEF31200FE0EE3CF4E
:10306000E9FFFF0EE3CFEAFFF36AF46AEE5203E0F2
:08307000F34AF42AFBD7120019
:08307800D9CFE6FFE1CFD9FF3B
:1030800082E90F0E871699169994999299969094C1
:103090009092909641EC00F0300E32D8050EE66E1C
:1030A0000BEC1CF041E9300E2BD8010EE66E0BEC58
:1030B0001CF041E9320E24D828D8FEE126D8FEE1E2
:1030C00000EBE6FFF5EC18F041E91FD8FEE1080E31
:1030D00017D81BD8FEE10F0E13D817D8FEE1010E4A
:1030E0000FD813D8FEE1130E0BD80FD8FEE1800ED7
:1030F000E66EC2EC1AF041E941E9E7CFD9FF1200D0
:10310000E66EF5EC18F041E91200BAEC1CF000098B
:023110001200AB
:0E311200D9CFE6FFE1CFD9FF82E935C4E6FF51
:1031200036C4E6FFB2EC13F042E9000902E0919EDA
:10313000F5D700EBF1F10101F26BF1BFF269F1C1DA
:10314000E6FFF2C1E6FF35C4E6FF36C4E6FFEFEC6A
:1031500013F044E941E9E7CFD9FF1200D9CFE6FFE8
:10316000E1CFD9FF82E90F0E99168716F00E0014F1
:103170008712908290940DD80F0E87160038F00BAE
:10318000F00B871206D8F00E991241E9E7CFD9FF6C
:10319000120034EC00F0908634EC00F090961200AF
:1031A000D9CFE6FFE1CFD9FF82E942E835C4E6FF97
:1031B00036C4E6FFB2EC13F042E9000902E0919E4A
:1031C000F5D70050026E036A0382039002EBE6FF1C
:1031D00003EBE6FF35C4E6FF36C4E6FFEFEC13F081
:1031E00044E943E9E7CFD9FF1200D9CFE6FFE1CFA9
:1031F000D9FF82E90F0E99168716F00E0014871278
:10320000909490920DD80F0E87160038F00BF00BAB
:10321000871206D8F00E991241E9E7CFD9FF1200C4
:0E32200034EC00F0908634EC00F09096120032
:02322E00D9CFF6
:10323000E6FFDACFE6FFE1CFD9FFE2CFDAFF85E99B
:103240006C6A6B6A02B06C8802A202D06C8C6B8CC8
:1032500002B46C8E02A602D06B8801D06B8A02A8E1
:1032600002D06C8401D06C9402BA6B8602AC02D09E
:10327000A38A01D0A39A02AE02D0A38801D0A3985A
:1032800000EB6FFF010101EBF1F1F26BF1C17DFF8A
:103290006C8A6B8E989298846C50100B04E06C5082
:1032A000800B01E1988241E9E5CFDAFFE7CFD9FF52
:0232B00012000A
:0E32B2007C7C2F2F2D2D00000000000000005E
:1032C0000000000000007C7C2F2F2D2D5C5C000096
:1032D000000000000000000000004F4F4F4F4F4F14
:1032E0002D2D5F5F2D0000000000000000007676AD
:1032F0003C3C5E5E3E3E000000000000000000001E
:1033000000002E2E2A2A7823782358587C7C2D2DD5
:103310000000000000002E2E6F6F4F4F6F6F0000F7
:0A33200000000000000000000000A3
:06332A00D9CFE6FFDACF67
:10333000E6FFE1CFD9FFE2CFDAFF87E944E8D9CF52
:10334000E6FFDACFE6FFE552E5500A6EE750096E78
:1033500009EBE6FF0AEBE6FF00EBE6FF01EBE6FF19
:1033600002EBE6FFD950030FE66E000EDA20E66EA0
:1033700064EC08F047E9F350076EF450086E03EB75
:10338000E9FF04EBEAFFEF6A07EBF3FF08EBF4FF5A
:0C33900045E9E5CFDAFFE7CFD9FF1200D6
:04339C00D9CFE6FFA0
:1033A000DACFE6FFE1CFD9FFE2CFDAFF85E90134DA
:1033B00015E200EBE9FF01EBEAFFEECFF3FFEDCF03
:1033C000F4FFEE2A000EEF22F3CFE9FFF4CFEAFF7D
:1033D00002EBEFFFEF50F36EF46A0DD0FE0E005CCF
:1033E00005E102EBE6FFF2EC1CF004D002EBE6FF95
:1033F0000AEC00F041E941E9E5CFDAFFE7CFD9FF78
:023400001200B8
:0E340200D9CFE6FFDACFE6FFE1CFD9FFE2CF68
:10341000DAFF85E941E8056A010102EBF1F1030EEB
:10342000F115AA6EFF0E0114A96E00EBA8FFA69E6F
:10343000A69CA684F250800B01E0010E056EF29E60
:10344000550EA76EAA0EA76EA682A6B2FED705508D
:10345000E8B0F28EE8A0F29EA69442E9E5CFDAFF4A
:06346000E7CFD9FF1200C6
:0A346600D9CFE6FFDACFE6FFE1CF91
:10347000D9FFE2CFDAFF85E9C26AC06A01407F0B5B
:103480003C0BC26E0138F00B300B0101F16F0F0ED7
:103490000014F111C16E0250040DF350380BF26F9D
:1034A00002380F0B070BF16F800E0214F111F211AD
:1034B000C06E01AE03D09E9C9D8CF28CC28041E90F
:0A34C000E5CFDAFFE7CFD9FF1200D5
:0634CA00D9CFE6FFDACFC6
:1034D000E6FFE1CFD9FFE2CFDAFF85E93F0EC7165D
:1034E000C66A0250C6120050C7120150030A09E012
:1034F000010A04E0020A06E1C78C04D0C78CC68822
:1035000001D0C6880250050A03E0010A03E1978E44
:10351000948601D094969488949AC68A41E9E5CF1E
:08352000DAFFE7CFD9FF12002A
:08352800D9CFE6FFDACFE6FF80
:10353000E1CFD9FFE2CFDAFF85E96CA2FED700EB3D
:10354000F6FF01EBF7FF02EBF8FF0800F5CFE6FF0F
:10355000A3EC1CF041E9D9CFE9FFDACFEAFFEFCFC6
:10356000F6FFEE2AEFCFF7FF000EEE22EFCFF8FFC7
:10357000EE220800F550E1E141E9E5CFDAFFE7CFBF
:04358000D9FF12005D
:0C358400D9CFE6FFE1CFD9FF82E90F0E9E
:1035900099168716800E0010F00B87129094909267
:1035A0000DD80F0E87160038F00BF00B871206D8D7
:1035B000F00E991241E9E7CFD9FF120034EC00F088
:0A35C000908634EC00F090961200A3
:0635CA00D9CFE6FFE1CFBE
:1035D000D9FF82E90F0E99168716400E0010F00BE6
:1035E0008712909490920DD80F0E87160038F00B2A
:1035F000F00B871206D8F00E991241E9E7CFD9FFF8
:10360000120034EC00F0908634EC00F0909612003A
:10361000D9CFE6FFE1CFD9FF84E915D8F5500FE007
:1036200012D8F5CFE6FF89EC18F041E9D9CFE9FFD0
:10363000DACFEAFFEE2A000EEE22EE22EED741E9C3
:10364000E7CFD9FF120000EBF6FF01EBF7FF02EB2B
:06365000F8FF0800120063
:0A365600D9CFE6FFE1CFD9FF81E9EB
:1036600041E89084908234EC00F0908634EC00F0D5
:10367000F00E8714016E909634EC00F0908634ECD6
:1036800000F087380F0B0F0B0112909690929094D8
:0A369000015042E9E7CFD9FF120014
:06369A00D9CFE6FFE1CFED
:1036A000D9FF81E941E89084909234EC00F0908653
:1036B00034EC00F0F00E8714016E909634EC00F0BC
:1036C000908634EC00F087380F0B0F0B01129096A8
:0E36D00090947F0E011442E9E7CFD9FF12005B
:0236DE00D9CF42
:1036E000E6FFDACFE6FFE1CFD9FFE2CFDAFF84E9E8
:1036F000010101EBF1F1F26B030E0101F115AA6E6C
:10370000FF0E0014A96EA69CA69EA68000000000D5
:10371000A85000D041E9E5CFDAFFE7CFD9FF12008A
:10372000FE0EE3CFFEF0FF0EE3CFFFF01200350EEA
:10373000E66E450EE66EFEC0E6FFFFC0E6FFD3EC88
:103740000FF0E552E5CFFFF0E7CFFEF00001FE2BD2
:10375000E86AFF23FF9FFEC0F3FFFFC0F4FF1200E3
:10376000D9CFE6FFDACFE6FFE1CFD9FFE2CFDAFF2C
:1037700083E9360E0014B16EB36AB26AA19200AE4C
:1037800002D0A08201D0A09200A002D0B18E01D0C0
:10379000B19EB18041E9E5CFDAFFE7CFD9FF120052
:1037A000D9CFE6FFDACFE6FFE1CFD9FFE2CFDAFFEC
:1037B00082E941E8F20E0201E8176BAC03D0E89110
:1037C0006BB0E8816BB4E8856BB2E8876E50026E2F
:0E37D000025042E9E5CFDAFFE7CFD9FF120041
:0237DE00D9CF41
:1037E000E6FFE1CFD9FF83E900EBE9FF01EBEAFF58
:1037F000EF500DE000EBE9FF01EBEAFFEFCFE6FF52
:1038000089EC18F041E9002A000E0122EDD741E9C8
:06381000E7CFD9FF120012
:0A381600FF0EE3500201E76FEE0E13
:1038200002D0F20E0000E76EE72E14EF1CF00C0E33
:103830000201E66FE76AE72E1BEF1CF0E62F1AEF96
:0C3840001CF00201E72F11EF1CF0120039
:04384C00D9CFE6FFEB
:10385000DACFE6FFE1CFD9FFE2CFDAFF83E97F0ECF
:103860000014D56ED76AD66AF29400AE02D0F28AFE
:1038700001D0F29AD58E41E9E5CFDAFFE7CFD9FF43
:02388000120034
:0E388200D9CFE6FFDACFE6FFE1CFD9FFE2CFE4
:10389000DAFF83E9FB0E0014766E786AA49600AE18
:1038A00002D0A38601D0A396768441E9E5CFDAFF62
:0638B000E7CFD9FF120072
:0A38B600D9CFE6FFDACFE6FFE1CF3D
:1038C000D9FFE2CFDAFF84E942E880EB04F081EB34
:1038D00005F005EBB3FF04EBB2FF43E9E5CFDAFFF8
:0638E000E7CFD9FF120042
:0A38E600D9CFE6FFDACFE6FFE1CF0D
:1038F000D9FFE2CFDAFF84E942E880EB04F081EB04
:1039000005F005EBD7FF04EBD6FF43E9E5CFDAFF7F
:06391000E7CFD9FF120011
:0A391600D9CFE6FFDACFE6FFE1CFDC
:10392000D9FFE2CFDAFF83E9C30EC2140101F16FC0
:1039300000407F0B3C0BF111C26E41E9E5CFDAFF8D
:06394000E7CFD9FF1200E1
:0A394600D9CFE6FFDACFE6FFE1CFAC
:10395000D9FFE2CFDAFF83E96CAC04D06C900201AE
:10396000E8B36C8000EB6DFF41E9E5CFDAFFE7CF0C
:04397000D9FF120069
:0C3974009084909234EC00F0908634ECCB
:1039800000F087AE02D003D8010C01D8000C90964D
:1039900034EC00F0908634EC00F090969094120095
:1039A000F36AF46AFF0EE124E96EFF0EE220EA6E8C
:1039B000ED6607D02F0EEF6404D03A0EEF6001D011
:0439C000F32A1200D4
:0C39C400600EF36E00EE00F00F0E01D854
:1039D0001200EA6002D0EE6AFCD7F350E9601200F0
:0439E000EE6AFCD7B8
:0C39E400FF0EE350ACBA04D0AF6AAB8E0B
:1039F000AC8A949CACA2FED7AD6EF36EF46A120052
:103A00001EEE00F02EEE00F0F86AA0EC17F00BECC2
:0A3A100000F002EC04F0FBD71200F6
:063A1A00FF0EE350E84E30
:103A20001200000000D000D000D0E82EFAD712001B
:103A30003031323334353637383961626364656624
:013A40000085
:0F3A4100C80000000000000000000000000000AE
:0F3A500000000000000000000000000000000067
:013A5F000165
:013A60000065
:043A61000001000060
:0B3A6500000000000000000000000056
:103A70000000000000000000000020000000000026
:103A80000000000000000000000000000000000036
:103A90000000000000000000000000000000000026
:103AA0000000000000000000000000000000000016
:103AB0000000000000000000000000000000000006
:103AC00000000000000000000000000000000000F6
:103AD0000000000000000000000000332F002A2F2B
:103AE00000000000000000000000000000000000D6
:103AF00000000000000000000000000000000000C6
:103B000000000000000000000000000000000000B5
:103B10000000008080808080808080807F7F7F7F29
:053B20007F7F000000A2
:063B25000000000000009A
:023B2B00000098
:020000040030CA
:0100010006F8
:010002001BE2
:0100030015E7
:01000400F308
:010005008377
:01000600C138
:01000800FFF8
:01000900C036
:01000A00FFF6
:01000B00E014
:01000C00FFF4
:01000D0040B2
:00000001FF
